:020000040800F2
:1000000060120024E5030008DB67000817560008AB
:10001000D9670008BB1E0008A58400080000000086
:10002000000000000000000000000000557A0008F9
:10003000E12000080000000011780008577A00084D
:10004000FF030008FF030008FF030008FF03000888
:10005000FF030008FF030008FF030008FF03000878
:10006000FF030008FF030008FF030008BD1E00088F
:10007000FF030008FF030008FF030008FF03000858
:10008000FF030008FF030008FF030008FF03000848
:10009000FF030008FF030008FF030008FF03000838
:1000A000FF030008FF030008FF030008FF03000828
:1000B000FF030008FF030008FF030008FF03000818
:1000C000FF0300082556000819560008FF03000822
:1000D000FF03000899840008FF030008FF030008DD
:1000E000FF030008FF03000800000000FF030008F2
:1000F000FF030008FF030008FF030008FF030008D8
:10010000FF030008FF030008FF030008FF030008C7
:10011000FF030008FF030008FF030008FF030008B7
:10012000FF030008FF030008FF030008FF030008A7
:10013000FF030008FF030008FF030008FF03000897
:1001400000000000000000000000000000000000AF
:10015000FF030008FF030008FF030008FF03000877
:10016000FF030008FF030008FF030008FF03000867
:10017000FF030008FF030008FF0300080000000061
:10018000FF030008FF030008FF030008FF03000847
:10019000FF030008FF030008FF030008FF03000837
:1001A000FF030008FF030008FF030008FF03000827
:1001B000FF030008FF030008FF030008FF03000817
:1001C000FF030008FF030008FF030008FF03000807
:1001D000FF030008FF030008FF030008FF030008F7
:1001E000FF030008FF030008FF030008FF030008E7
:1001F000FF030008FF030008FF030008FF030008D7
:10020000FF030008FF030008FF030008FF030008C6
:10021000FF030008FF030008FF030008FF030008B6
:10022000FF030008FF030008FF03000800000000B0
:10023000FF030008FF03000800000000FF030008A0
:10024000FF030008FF030008FF030008FF03000886
:10025000FF030008FF030008FF030008FF03000876
:10026000FF030008FF030008FF030008FF03000866
:10027000FF030008FF030008FF0300080000000060
:10028000FF030008FF030008FF0300080000000050
:1002900000000000FF03000800F002F800F092F8F0
:1002A0000AA090E8000C82448344AAF10107DA45D1
:1002B00001D100F087F8AFF2090EBAE80F0013F091
:1002C000010F18BFFB1A43F0010318477894000090
:1002D00098940000103A24BF78C878C1FAD8520721
:1002E00024BF30C830C144BF04680C6070470000B0
:1002F0000023002400250026103A28BF78C1FBD82F
:10030000520728BF30C148BF0B6070476E2900F00C
:100310005582702900F09783662908F07C8465294E
:1003200008F07984672908F07684612908F07584DB
:1003300003681B0A28BF41F08001692900F002828E
:10034000642900F0FF81752900F0FC816F2900F01D
:100350002483782900F06383E92900F0BF82E4292F
:1003600000F0BC82F52900F0B982EF2900F021836A
:10037000F82900F062830368DB0928BF41F080019F
:10038000632901F09B80732901F0A080E32901F02B
:10039000AB80F32901F0B080002070471FB508F052
:1003A00035FC01F0FBF804000020002108F070FB90
:1003B000401C60600020002108F054FBE0601FBD7D
:1003C00010B510BD01F0BCF81146FFF7E7FF08F0CB
:1003D0002BFB01F099F903B4FFF7F2FF03BC01F026
:1003E0009DF900000948804709480047FEE7FEE7FD
:1003F000FEE7FEE7FEE7FEE7FEE7FEE7FEE7FEE7D5
:1004000004480549054A064B70470000397B00083F
:10041000990200086006002460120024600E002487
:10042000600E002453EA020C00F069802DE9F04BC5
:100430004FF00006002B1FBFB3FA83F503FA05F453
:1004400024FA05F65E4012BF1643B2FA82F502FAAC
:1004500005F4C5F120051EBF22FA05FC44EA0C0490
:10046000203556EA044C4FEA144418BF641C4FF080
:1004700000084FF00009904271EB030C39D30029BA
:1004800019BFB1FA81F701FA07F6B0FA80F700FA5E
:1004900007F6C7F120071EBF20FA07FC46EA0C0644
:1004A0002037B6FBF4FCA7EB0507103F07F01F0B46
:1004B000CBF120060CFA0BFB2CFA06F644BFB34630
:1004C0000026202FA4BF5E464FF0000B5BEA060C0F
:1004D00008BF4FF0010B19EB0B09ABFB027C48EB9B
:1004E0000608C01B06FB02CC0BFB03CC71EB0C0116
:1004F000C1E70B46024641464846BDE8F08B13B5BE
:100500004FF000004FF00001AFF30080BDE81C4049
:10051000704700001CB50C46064B7B4469460090B2
:10052000204600F064F904460020694600F072F9A4
:1005300020461CBDF7020000032A40F2308010F074
:10054000030C00F0158011F8013BBCF1020F62446E
:1005500098BF11F801CB00F8013B38BF11F8013BFF
:10056000A2F1040298BF00F801CB38BF00F8013BAC
:1005700011F0030300F03683083AC0F0088051F808
:10058000043B083A51F804CBA0E80810F5E7121D27
:100590005CBF51F8043B40F8043BAFF30080D20746
:1005A00024BF11F8013B11F801CB48BF11F8012B12
:1005B00024BF00F8013B00F801CB48BF00F8012B35
:1005C00070474FF0000200B5134694469646203916
:1005D00022BFA0E80C50A0E80C50B1F12001BFF4FC
:1005E000F7AF090728BFA0E80C5048BF0CC05DF862
:1005F00004EB890028BF40F8042B08BF704748BFB0
:1006000020F8022B11F0804F18BF00F8012B704723
:100610004FF0013C50F8042B51F8043B9A4215D19D
:10062000A2EB0C03934313EACC130BD150F8042B29
:1006300051F8043B9A4209D1A2EB0C03934313EA0D
:10064000CC13E7D04FF00000704700BFD01A01BABA
:10065000B1FA81F101F0180122FA01F0CB40C1F1A9
:100660002001DBB2C0B2C01A2CFA01F3D11A9143B7
:1006700011EAC311E6D1704770477047704770B5F3
:10068000044685690068C10601D5302600E02026B1
:10069000C00707D070BDD4E9012130469047206AD9
:1006A000401C20626D1EF6D570BD70B5044685698C
:1006B0000078C00707D170BDD4E901212020904700
:1006C000206A401C20626D1EF6D570BD09684A057F
:1006D00001D540B27047C905FCD500B27047096822
:1006E0004A0501D5C0B27047C905FCD580B2704734
:1006F00070B50C460546012A05D02878800600D53D
:10070000EA69002302E0012305E05B1C934202D268
:10071000E05C0028F9D1A869E618C01AA861286A27
:10072000184428622846FFF7AAFF04E0D5E9012112
:1007300014F8010B9047B442F8D32846FFF7B5FFF1
:1007400070BD00002DE9F0410646002410687529AF
:10075000314616A510D0FFF7B9FF002802DA404253
:1007600013A507E031688A0701D512A502E0490701
:1007700004D511A5012401E0FFF7B1FF00210A22F1
:1007800006F1240709E0B0FBF2FCB0FBF2F302FB38
:100790001C00303078541846491C0028F3D12346F9
:1007A0002A463046BDE8F04100F097BA000000004C
:1007B0002D0000002B0000002000000011680268DE
:1007C000006A530501D508700AE0D30501D50880F9
:1007D00006E0130603D5C217C1E9000200E0086075
:1007E0000120704701694A1C02610878704700B512
:1007F0008FB0CDE901310021059105497944CDE95A
:1008000003101146684600F029F90FB000BD000042
:10081000E5FFFFFF0A6802F8010B0A60704700005D
:100820002DE9FF5F15468A460446DFF8AC80F844A0
:100830000027D8E900103E46CDE9001010E03AF854
:1008400016106A4602A800F05BFE411C07D0217812
:10085000890603D5E269391891420DD80744761C00
:100860002078800602D5E069B84205DDAE42E6DBBD
:100870003AF816000028E2D1A069C01BA06120460A
:10088000FFF7FDFED8E90010CDE90010002017E0C9
:100890003AF818106A4602A800F032FEB0F1FF3FA5
:1008A00081460BD000250DF1080B05E0D4E90121AC
:1008B0001BF8050090476D1C4D45F7D308F101006A
:1008C000B0428046E4DB206A384420622046FFF7CD
:1008D000ECFEBDE8FF9F00006E8D00002DE9F041A9
:1008E0008046D21D22F007020025D2E90002F52938
:1008F00015A614D0011E72F1000106DA0023D0EB18
:10090000030063EB020211A608E0D8F800108B0781
:1009100001D50FA602E0490701D50EA60125114613
:10092000002408F1240704E000F092F930323A552F
:10093000641C50EA0102F7D12B463246214640465C
:10094000BDE8F04100F0C9B9000000002D00000032
:100950002B0000002000000030B4002100F124042E
:1009600008E002F00705D208303542EA4372DB089E
:100970006554491C52EA0305F3D10468002310A210
:10098000250707D5A40600D421B1C46901230DA20F
:10099000641EC46130BC00F0A0B910B50446214605
:1009A0001068FFF79CFE02462046BDE81040002379
:1009B000D2E7D21D22F00701D1E90023CCE70000E5
:1009C0000000000030000000F0B40D460188090569
:1009D00002D5214C7C4402E01F4C7C440E340021A3
:1009E00000F1240608E002F00F071209E75D42EA71
:1009F00003721B097754491C52EA0307F3D10278AA
:100A00000023120704D5702D06D009B1022311343A
:100A10002246F0BC00F061B901231034F8E770B54C
:100A200004460D4621461068FFF759FE0246294646
:100A30002046BDE870400023C6E7D21D22F0070320
:100A4000D3E90023C0E70368126843F02003036082
:100A50000823C3610023B7E7D08B00002DE9F05FC6
:100A6000894604464FF0000ADFF874B1FB44C0F831
:100A700020A02046E1688847002874D0252806D0A9
:100A8000D4E901219047206A401C2062F1E700264A
:100A90005F462046E16888472028054607DB312D60
:100AA00005D2781910F8200C08B10643F1E7B00719
:100AB00001D526F00406C4F81CA00027C4F818A02D
:100AC0002A2D09D0284607F093FF38B304EB870896
:100AD000303DC8F8185019E059F8041B204604EBC3
:100AE00087029161E1688847012F054618D1E069C6
:100AF000002820DA26F020061DE0D8F8180000EBC8
:100B0000800005EB40003038C8F818002046E16846
:100B10008847054607F06CFF0028EED1012F0AD068
:100B20002E2D08D12046E16888477F1C0546022FFC
:100B300046F02006C4DBA069002803DA404246F0F4
:100B40000106A061F00701D026F010066C2D0BD035
:100B5000682D09D04C2D39D06A2D35D0742D35D063
:100B60007A2D33D016E038E0E1682F4620468847DA
:100B7000B842054609D16C2F26D04FF48060E16859
:100B8000064320468847054604E06C2F1AD04FF4F0
:100B9000807006430DB3A5F14100192802D8203515
:100BA00046F400664A462946204626604E46FFF730
:100BB000ADFB80B101280BD0F61D26F0070000F137
:100BC000080956E74020E4E78020D8E70020D6E770
:100BD00006F104094DE7284652E7206ABDE8F09F78
:100BE000608B000010B5203AC0F00B80B1E81850BF
:100BF000203AA0E81850B1E81850A0E81850BFF407
:100C0000F5AF5FEA027C24BFB1E81850A0E81850A5
:100C100044BF18C918C0BDE810405FEA827C24BFF9
:100C200051F8043B40F8043B08BF7047D20728BF87
:100C300031F8023B48BF11F8012B28BF20F8023BD6
:100C400048BF00F8012B7047004870470006002499
:100C500030B5B0F10A024FEA900E71F100034EEA8E
:100C6000817EB0EB0E0061EB91014FEA101E4EEA5F
:100C7000017E10EB0E0041EB11114FEA102E4EEAEF
:100C8000016E10EB0E0041EB11214FEA104E4EEABF
:100C9000014E10EB0E0041EB1141401841F10001F3
:100CA0004FEAD00040EA41704FEAD10110EB8005D5
:100CB0004FEA810444EA907444EB01046D1944EB5B
:100CC0000404521BA3414FF0000348BF0A3200D571
:100CD00030BD401C41F1000130BD2DE9F0470D460B
:100CE00099469246044600F124080168880604D516
:100CF000E06921F01001216000E00120A84201DD3F
:100D0000471B00E00027A1697A1902EB0900081AC5
:100D1000A0612078C00602D42046FFF7B0FC002670
:100D200008E0D4E901211AF806009047206A401C27
:100D3000761C20624E45F4DB2078C0060AD520469A
:100D4000FFF79DFC06E0D4E9012130209047206A9E
:100D5000401C2062381EA7F10107F4DC07E0D4E94B
:100D6000012118F805009047206A401C2062281EC7
:100D7000A5F10105F3DC2046FFF797FC207800067B
:100D800002D50220BDE8F0870120FBE770472DE97E
:100D9000FF4F0C461E464FF0FF378BB0D2E90001E3
:100DA000DDF860800A908A46C1F30A5505B93D46D0
:100DB000002108464FF00000BAF1000F00F4400097
:100DC00005DA00EB80004FF4400101EA50004FEAE1
:100DD0009059B9F1010F00DDB9460A9850EA4A006E
:100DE0000ED044F61050A5F2FF3545432F14B8F14C
:100DF000000F1ED07542291E1EDDC9F100021CE045
:100E0000B8F1010F4FF0000001D0302103E0F243B0
:100E100005E02154401CB042FBDB3046002200219B
:100E200021540B99C1F80880C1E900200FB0BDE83A
:100E3000F08FBD1B6D1CDEE74A4600DA694206A84A
:100E400000F0F0FB06AB93E8070003AB83E8070074
:100E500050460A9900F069FC8DE80700A0F50050A3
:100E60001F3800900398002D0ADD42F21F014A4608
:100E70000844002303A90390684600F0D2FE09E06D
:100E8000A0F500504A461F38002303A90390684686
:100E900000F0DCFE8DE807000004000C03D04FF0EA
:100EA000FF30410800E01046B8F1000F03D00022E7
:100EB000009215461EE0751E05D4FFF7C9FE3032BC
:100EC00062556D1EF9D5B3460122084302D00022B7
:100ED0007F1C04E02078302801D100227F1E002AE8
:100EE000099784D01DE0112D07DAFFF7B1FE3032EB
:100EF00062556D1C50EA0102F5D1084302D00098FA
:100F0000C8B10EE00021681E05E0235C625C6354FA
:100F10002254401E491C8142F7DBAB46A81B401EF1
:100F20000990002004F80B000B98099AC0F808807B
:100F3000C0E9002B7AE711264FF0000857E72DE9AA
:100F4000F04F88460446D21D22F0070191B0D1E946
:100F50000001CDE90A0107F0A6FA02460B98C00F7E
:100F600001D02D2007E02068810701D52B2002E069
:100F7000202101EAC000032A099001D0072A05DBDD
:100F800003464146204600F00DFB0BE12078800629
:100F900001D5E06900E00620B8F1650F814606D072
:100FA000B8F1660F18D0B8F1670F70D131E00020AA
:100FB000B9F1110F009001DB112301E009F10103E8
:100FC0000AAA01A90CA8FFF7E2FEDDE90C700026D1
:100FD00009F10105834647E001204B4600904FF0A0
:100FE00000470AAA01A90CA8FFF7D1FEDDE90DB060
:100FF0000C995D46002610B909F101000D18B9EBF6
:10100000050003D4C0F1FF3609F10105A5EB090085
:101010002BE0B9F1010F01DA4FF001090020B9F11D
:10102000110F0090484601DD112300E003460AAA93
:1010300001A90CA8FFF7ABFEDDE90C704D460026B8
:101040008346207800070AD4AB4500DA5D4601A844
:10105000012D04DD411911F8011C302907D04F453D
:1010600002DA17F1040F04DA012082460FE06D1E48
:10107000EEE7002F02DCED1B3E4403E0781CA842A3
:1010800000DD7D1CB81B00F1010A4FF000472078FD
:10109000000703D4AA4501DB4FF0FF3A0021B7F166
:1010A000004F0DF143088DF8431024D002202B236C
:1010B000002F01DA7F422D230A21021EA0F1010038
:1010C00000DC5FB197FBF1FC97FBF1F201FB1C7CAC
:1010D00017460CF1300C08F801CDEEE7A8F101003D
:1010E00003702188090501D5452100E06521A0F1A3
:1010F000010800F8011C09980FA9A1EB0807FF1DC2
:1011000000B10120411901EBEA70A1693844081AC5
:10111000401EA0612078C00602D42046FFF7AFFA37
:10112000099828B1D4E901219047206A401C206227
:101130002078C00622D52046FFF7A1FA1EE0002E37
:1011400004DBB34502DD01A8805D00E03020D4E976
:1011500001219047206A401C2062761CAAF1010000
:101160005FEA000A0AD100F019FAC0680168405C21
:10117000D4E901219047206A401C2062281EA5F175
:101180000105DCDC07E0D4E9012118F8010B9047E8
:10119000206A401C2062381EA7F10107F3DC2046BC
:1011A000FFF783FA032011B041E600002DE9F04F6C
:1011B00004460D46D21D22F0070089B0D0E9009701
:1011C0004846394607F06FF90246F80F01D02D2343
:1011D00007E02068810701D52B2302E0202101EAE6
:1011E000C0038DF820300BB1012000E00020032A5D
:1011F000824601D0072A04DB2946204600F0D2F9B6
:101200003FE12078800601D40D2500E0E569C7F3B1
:101210000A560D2D49DA00214FEA175B08464FF0B8
:101220000000002F00F4400007DA00EB80004FF4CC
:10123000400100EBD07001EA60008115012901DD59
:101240004FF0FF3100224FEA850CBCF1180F06D396
:101250001346ACF118004FF08052C24003E04FF447
:10126000801323FA0CF30CF10C0CBCF1200F04D307
:10127000ACF1200C09FA0CF001E007FA0CF000299F
:101280004FF0004801DD18B90FE00ED140450CD3F6
:1012900019EB02095F4121B9404502D19F4329EA78
:1012A0000209BBEB175F00D0761C2088000502D531
:1012B0007B48784402E07A487844193808AA3023F9
:1012C00002F80A30037C0AF10101002E0AF1020A39
:1012D00053546A4602DC4FF0300101E04FF0310117
:1012E0004FF001088DF8001002D0A6F2FF3603E09F
:1012F00059EA470100D06B4E002D02DC2178090726
:1013000004D54FF002082E218DF80110C4460021AB
:101310000BE0C7F303433F01C35C491C6D1E02F899
:101320000830052908F1010801DA002DF1DC00215F
:101330000CE000EB1973491C1B786D1E082902F89C
:1013400008304FEA091908F1010801DA002DF0DC34
:1013500021688B0602D516E0A8F10108E04505DDFD
:1013600002EB080313F8013C302BF5D0B8F1000F65
:1013700009DD02EB080313F8013C2E2B03D109070A
:1013800001D4A8F10108002D05DD3E2102F8081066
:101390006D1E08F10108407C002E02F8080008F1DB
:1013A000010804DA2D20764202F8080002E02B2022
:1013B00002F808000A214FF47A70864208F1010809
:1013C0000BDB96FBF0F3303302F8083096FBF0F3BA
:1013D00008F1010800FB136601E0642E0CDB6420B9
:1013E00096FBF0F3303302F8083096FBF0F308F187
:1013F000010800FB136601E00A2E06DB96FBF1F004
:10140000303002F8080008F1010896FBF1F001FB0A
:101410001060303002F80800A16908F1010808EBFB
:10142000050202EB0A00081AA0612078C00602D467
:101430002046FFF724F9216A08AE01EB0A0020627A
:1014400004E0D4E9012116F8010B9047BAF1010A32
:10145000F7D22078C00602D52046FFF710F96E4675
:1014600009E016F8010B3E280FD0D4E9012190477E
:10147000206A401C2062B8F10108F2D22046FFF732
:1014800014F909B00320BDE8F08F206A28442062D7
:1014900003E0D4E90121302090476D1EEBD3F8E73B
:1014A000E583000002FCFFFF10B5436913B1AFF301
:1014B000008001E0FFF71CF9012010BD127800F157
:1014C00024010A7000224A700122EDE711684FF0F2
:1014D000FF32E9E710B5436913B1AFF3008001E0D3
:1014E000FFF79EF9012010BD128800F124018284CB
:1014F0000022C2840122EDE711684FF0FF32E9E7D4
:1015000070B516460C46054600F040F8036893F89F
:101510000101012806D0FF2C0FD8185D68B1012009
:101520002C7070BDD3F807013246214603F2071331
:1015300003442846BDE8704018474FF0FF3070BDA7
:101540007546FFF781FBAE4605006946534620F01D
:101550000700854618B020B5FEF752FFBDE82040D1
:101560004FF000064FF000074FF000084FF0000B5F
:1015700021F00701AC46ACE8C009ACE8C009ACE812
:10158000C009ACE8C0098D467047000010B500F0F6
:1015900005F8001D10BD00BFF97400000048704739
:1015A000200600242DE9F0411F4604460326016869
:1015B000072A01F4006004DB08B116A505E016A5B2
:1015C00003E008B115A500E015A521F0100020608A
:1015D000A069C01EA0610FB1401EA0612046FFF7A8
:1015E0004EF84FB1D4E9012138469047206A401C9B
:1015F0002062C01C206206E0206AFAE7D4E90121DB
:1016000015F8010B9047761EF8D22046FFF74DF8EB
:10161000BDE8F0814E414E006E616E00494E4600BD
:10162000696E66002DE9F047814616468AB0354856
:1016300078440DC88DE80D0032487844801C03AC16
:101640000DC884E80D0041F69B300844372190FB1B
:10165000F1F290FBF1F5A5F1800501FB12041B3CB2
:1016600002D56442012000E00020DFF898A0804607
:101670000027FA44AAF1BE0A0EE0E0070AD032467B
:10168000684607EB470101230AEB810100F0DEFA0F
:101690008DE8070064107F1C002CEED1194F7F44A9
:1016A000AE3F19E0E80715D007EB04100DF1180A5A
:1016B00090E80E008AE80E00C068F04201D1981947
:1016C00008903246012306A903A800F0BFFA03AB35
:1016D00083E807006D10641C002DE3D14FF0010377
:1016E00032466946B8F1000F03A802D000F099FA1B
:1016F00001E000F0ABFAC9E90001C9F808200AB01E
:10170000BDE8F087F880000010B50446AFF3008014
:101710002046BDE81040FEF75EBE000001491820DB
:10172000ABBEFEE72600020070475FEA400C08BF30
:1017300091F0000F4FEA8C234FEAC12243EA515146
:101740004FEA1C5018BF00F5F0404FEA300018BFB8
:1017500041F000415FEA6C5C00F02980BCF1FF3F82
:1017600008BF40F080407047130C06BF12044FF0D2
:10177000100C4FF0000C130E04BF12020CF1080CF9
:10178000130F04BF12010CF1040C930F04BF92005D
:101790000CF1020CD30F04BF52000CF1010C1146E6
:1017A0004FF00002A0F11F00A0EB0C00704711F0F9
:1017B000004F08BF704731F000413FF4D5AF0B0C2C
:1017C00006BF09044FF0100C4FF0000C0B0E04BFC5
:1017D00009020CF1080C0B0F04BF09010CF1040CF9
:1017E0008B0F04BF89000CF1020CCB0F04BF490022
:1017F0000CF1010CCCF12003A0EB0C0022FA03F356
:1018000002FA0CF241EA030100F10100704720F0F6
:101810007F4C80EA030023F07F47ACEB070303F51E
:101820007C5300F0004003F1FF032DE980494FEAAB
:10183000154B09B44FEA144325EA0B4E24EA03483A
:101840000FF2042606EB132749083E785FEA3202BE
:1018500003FB0667C7F5000707FB06F64FEA543798
:101860004FEAD64606F1020607FB066CCCF1005C97
:101870004FEA1C472CEA074C07FB06F40CFB06F565
:1018800004EB15464FEA961634BF00204FF0004097
:101890004FEAD13706FB07FC4FEA1C4C0CFB0BF759
:1018A000D21B03FB0CF761EB07010CFB0EF7B0EB4F
:1018B000074072EB17420CFB08F734BFA2EB07425C
:1018C000B2EB074261EB17414FEA0C444FEA910734
:1018D00006FB07FC4FEA1C4C0CFB0BF7B0EBC740B8
:1018E00072EB573203FB0CF734BFA2EBC742B2EBEB
:1018F000C74261EB57310CFB0EF7B0EBC70072EB40
:1019000057720CFB08F734BFA2EBC702B2EBC70259
:1019100061EB5771039F4FEA816141EA921104EB39
:10192000CC044FEAD1374FEA826206FB07FC42EA59
:1019300090124FEA80604FEA1C4C0CFB0BF7D21B55
:1019400003FB0CF761EB07010CFB0EF7B0EB074054
:1019500072EB17420CFB08F734BFA2EB0742B2EB65
:10196000074261EB17414FEA8C554FEA910704EBB0
:101970009C2406FB07FC4FEA1C4C0CFB0BF7B0EB5E
:10198000C74072EB573203FB0CF734BFA2EBC742E0
:10199000B2EBC74261EB57310CFB0EF7B0EBC7005F
:1019A00072EB57720CFB08F734BFA2EBC702B2EB25
:1019B000C70261EB577115EB4C254FEA816141EA93
:1019C00092114FEA82624FEAD13742EA901206FB47
:1019D00007FC44F100044FEA80604FEA1C4C0CFB0A
:1019E0000BF7D21B03FB0CF761EB07010CFB0EF7A7
:1019F000B0EB074072EB17420CFB08F734BFA2EBC9
:101A00000742B2EB074261EB174115EB1C154FEA99
:101A1000813141EA92414FEA823242EA90424FEAF2
:101A200080304FEA0C7644F1000448EA03434EEA62
:101A30000B484FF0000EB2EB080C71EB030724BF0C
:101A4000624639464EEB0E0E4FF0000B0018524125
:101A500049414BEB0B0BB2EB080C71EB03077BF12D
:101A6000000B24BF624639464EEB0E0E4FF0000BC2
:101A70000018524149414BEB0B0BB2EB080C71EBD8
:101A800003077BF1000B24BF624639464EEB0E0E76
:101A900051EA020718BF46F0010616EB0E7655F123
:101AA000000254F1000103D5BDE88901BDE80088BA
:101AB000BDE88901BDE80048B619524141EB01017A
:101AC000A3F10103704780807F7E7D7C7B7A7978EB
:101AD000777676757473727171706F6E6E6D6C6CF3
:101AE0006B6A6A6968686766666564646363626195
:101AF0006160605F5F5E5E5D5D5C5C5B5B5A5A5916
:101B00005958585757565655555554545353525281
:101B10005251515050504F4F4F4E4E4D4D4D4C4CD9
:101B20004C4B4B4B4A4A4A49494948484847474722
:101B3000474646464545454444444443434343425F
:101B4000424242414141002B9C4630D477002BD089
:101B50001CB54FEA370703B44FF010004FF01001E7
:101B6000BAF1000F06D0BCF1000FDCBF40F0080056
:101B700040F008014FF000000FBCBDE810400BF131
:101B8000010BBBF1010F08BF5FEA170722BF12F17B
:101B9000010211F101014FF0004143F1000300F097
:101BA000004043EA00007047F9D35708D0E746EAFF
:101BB000064613F1400F4FEA16461FDD13F1200FC2
:101BC000DFBF16430A46002120335B42BED0C3F17B
:101BD000200746EA064602FA07F74FEA164646EAA3
:101BE0000706C3F1200722FA03F201FA07F721FAE8
:101BF00003F14FF0000342EA0702A7E746EA0206B4
:101C000046EA06464FEA164646EA0106BCBF46EAE1
:101C10000646360C4FF000034FF000024FF0000173
:101C200094E72DE9804C9A46934670B491E83800C9
:101C300007C831EA400C48BF34EA430C03D5FFF72C
:101C4000E6FDFFF780FFF0BCBDE8008C2DE9804C7D
:101C50009A46934670B491E8380007C810F0804F58
:101C600008BF13F0804F03D100F005F8FFF76BFFBA
:101C7000F0BCBDE8008C20F07F4780EA030023F031
:101C80007F4C07EB0C03A3F57C5300F00040A3F15D
:101C9000FE0392F0000F00F0B38095F0000F00F00B
:101CA00077802DE901494FEA11404FEA144621EAB5
:101CB000004800FB06FC24EA064708FB06F607FB83
:101CC00008F800FB07F718EB06484CEB164C4FEAF8
:101CD000124B18EB07484FEA15464CEB174022EA27
:101CE0000B4E0BFB06FC25EA06470EFB06F607FB30
:101CF0000EFE0BFB07F71EEB064E4CEB164C4FF09F
:101D000000061EEB074E4CEB174B18EB0B0840F18F
:101D1000000018EB0E0B58EB000840F100008F1A82
:101D20004FF000013CBFC943661B14BFB5EB040C68
:101D300000213CBFC943F61B4FEA17444EEA8E0E02
:101D400027EA04454FEA1C4704FB07622CEA074CCC
:101D500005FB07F70CFB05F604FB0CFC16EB07462E
:101D600042EB174216EB0C4642EB1C421BEB0606FD
:101D700058EB0202414146EA9E0601D5BDE80189C1
:101D8000B619524141EB0101A3F10103BDE80189FC
:101D90004FEA14454FEA114724EA054621EA074C69
:101DA00005FB07F406FB07F70CFB06F105FB0CFC33
:101DB00011EB074144EB17444FEA124711EB0C417A
:101DC00044EB1C4422EA074C05FB07F206FB07F72D
:101DD0000CFB06F605FB0CFC16EB074642EB174224
:101DE00016EB0C4642EB1C456A1854F1000148BF43
:101DF0007047B619524141EB0101A3F1010370474D
:101E000095F0000F37D04FEA11424FEA144721EA0C
:101E1000024624EA074C02FB07F106FB07F70CFB1E
:101E200006F402FB0CFC14EB074441EB17414FEAAC
:101E3000154714EB0C4441EB1C4125EA074C02FB0F
:101E400007F506FB07F70CFB06F602FB0CFC16EB8E
:101E5000074645EB174516EB0C4645EB1C4212199D
:101E600051F1000148BF7047B619524141EB0101E1
:101E7000A3F1010370474FEA14454FEA114724EAE2
:101E8000054621EA074C05FB07F106FB07F70CFBAB
:101E900006F24FF0000605FB0CFC12EB074241EB8B
:101EA000174112EB0C4251EB1C4148BF704792188E
:101EB00041EB0101A3F101037047FEE7014800F087
:101EC00009BC000070000024294A016891423AD000
:101ED000274A1832914236D0254A3032914232D0C8
:101EE000234A483291422ED0214A603291422AD070
:101EF0001F4A7832914226D01D4A9032914222D018
:101F00001B4AA83291421ED01A4A91421BD0194A4C
:101F10001832914217D0174A3032914213D0154AE5
:101F2000483291420FD0134A603291420BD0114A8D
:101F30007832914207D00F4A9032914203D00D4A35
:101F4000A832914211D1CAB21823103AB2FBF3F26F
:101F50006FF30901032A02F00703074AD25CC26546
:101F600000D9091D81650846704721F0FF01F9E796
:101F700010000240100402401E8C000830B5224AB6
:101F8000012301689142CAB21BD01F4C1434A142F4
:101F900017D01D4C2834A14213D01B4C3C34A14215
:101FA0000FD0194C5034A1420BD0174C6434A142CD
:101FB00007D0154C7834A14203D0134C8C34A14285
:101FC0000CD11421114C083AB2FBF1F10F4A8032C6
:101FD00001F01F0504EB8101AB4010E00C4D18240B
:101FE000103A0D44B2FBF4F1A82D00D80831094A8B
:101FF00001F01F0402EB8101064AA34080326030E9
:1020000080E80E0030BD0000085402580058025805
:10201000F0FBFDBF0008024010B50279531E072BEC
:102020002DD8174C0168A1421BD0154C1434A14285
:1020300017D0134C2834A14213D0114C3C34A14288
:102040000FD00F4C5034A1420BD00D4C6434A14240
:1020500007D00B4C7834A14203D0094C8C34A142F8
:1020600003D10849074C443102E00749064C44318A
:1020700004EB8202C0E91B2101219940416710BD98
:1020800008540258FC580258FC08024010B58369F5
:102090004FF0C074826A0146002053B1B3F5005F6F
:1020A00015D072B1012A0CD0022A0AD0032A09D114
:1020B00004E01AB1012A06D0022A03D1C96AC90173
:1020C00000D5012010BDC96AA142FAD010BD002A76
:1020D000F7D0012AF2D0022AF3D0032AF3D010BDA0
:1020E000704772B6FEE700002DE9F84F044601F094
:1020F00075F900903CB194F83500022806D0802193
:1021000061650020E4E00120BDE8F88FC74DC74EAF
:10211000C649183520683036DFF81483DFF8149389
:102120008842DFF814A3DFF814B32ED0A8422CD0D5
:10213000B0422AD0404528D0484526D0504524D02A
:10214000584522D0BD4A183290421ED0BC4A904217
:102150001BD0BB4A1832904217D0B94A3032904255
:1021600013D0B74A483290420FD0B54A60329042FD
:102170000BD0B34A7832904207D0B14A90329042A5
:1021800003D0AF4AA832904209D1026822F01E0261
:1021900002602068426922F08002426103E0026826
:1021A00022F00E02026027688F4238464DD0A842C6
:1021B0004BD0B04249D0404547D0484545D0504526
:1021C00043D0584541D09D4A183290423DD09C4A58
:1021D00090423AD09A4A1832904236D0984A3032D9
:1021E000904232D0964A483290422ED0944A603281
:1021F00090422AD0924A7832904226D0904A903229
:10220000904222D08E4AA83290421ED08D4A9042EF
:102210001BD08C4A1432904217D08A4A28329042FE
:1022200013D0884A3C3290420FD0864A50329042B6
:102230000BD0844A6432904207D0824A783290426E
:1022400003D0804A8C32974204D1206E026822F477
:102250008072026075492068884228D0A84226D042
:10226000B04224D0404522D0484520D050451ED011
:1022700058451CD071491831884218D0704988429D
:1022800015D06F491831884211D06D4930318842DC
:102290000DD06B494831884209D069496031884284
:1022A00005D067497831884201D06549903101688D
:1022B00021F0010101600EE001F090F80099401A50
:1022C000052808D9202262650321002084F83510F2
:1022D00084F8340017E73868C007EDD1534A01216C
:1022E000206890422ED0A8422CD0B0422AD040453F
:1022F00028D0484526D0504524D0584522D04F4BB1
:10230000183398421ED04E4B98421BD04C4B18337A
:10231000984217D04A4B3033984213D0484B483339
:1023200098420FD0464B603398420BD0444B7833E1
:10233000984207D0424B9033984203D0404BA83389
:10234000984208D194F85C703F23A06D07F01F07F6
:10235000BB40836007E094F85C30A06D03F01F037E
:1023600001FA03F34360206890424DD0A8424BD05D
:10237000B04249D0404547D0484545D0504543D06C
:10238000584541D02D4A183290423DD02C4A9042B7
:102390003AD02B4A1832904236D0294A30329042F5
:1023A00032D0274A483290422ED0254A603290429D
:1023B0002AD0234A7832904226D0214A9032904245
:1023C00022D01F4AA83290421ED01E4A90421BD0F3
:1023D0001C4A1432904217D01A4A2832904213D025
:1023E000184A3C3290420FD0164A503290420BD0DD
:1023F000144A6432904207D0124A7832904203D095
:10240000104A8C3290420BD1D4E919024260E06E3E
:1024100030B1026822F480720260D4E91C0242608A
:10242000002084F8351084F834006DE61000024076
:10243000580002407000024088000240A0000240A4
:1024400010040240085402582DE9F05F28B190F8BA
:102450003510022904D0802141650120BDE8F09F9C
:10246000904C904B0168183C18338E4ADFF83C9230
:10247000A1428D4CDFF838E28E4FDFF83CB2DFF836
:102480003CA28F4D8F4E31D091422FD099422DD00A
:10249000A1422BD0494529D0714527D0B94225D03A
:1024A000DFF810C20CF1180C61451FD0DFF808C22C
:1024B000ACF1600C614519D0DFF8FCC1ACF1480CFF
:1024C000614513D0DFF8F0C1ACF1300C61450DD09F
:1024D000DFF8E4C1ACF1180C614507D0594505D0CF
:1024E000514503D0A94201D0B1422CD1DFF8B4C18B
:1024F0004FF0040880F83580ACF1180C61451DD010
:1025000091421BD0994219D0A14217D0494515D00C
:10251000714513D0B94211D06648183081420DD0B0
:1025200065486038814209D063484838814205D007
:1025300061483038814201D05F481838086820F07F
:1025400001000860ABE0D1F800C02CF00E08DFF805
:1025500054C1C1F80080ACF1180C0168614527D066
:10256000914225D0994223D0A14221D049451FD084
:1025700071451DD0B9421BD0DFF838C10CF1180CE1
:10258000614515D0DFF830C1ACF1600C61450FD06A
:10259000DFF824C1ACF1480C614509D0DFF818C15F
:1025A000ACF1300C614503D0DFF80CC1ACF1180C74
:1025B000D1F800C02CF0010CC1F800C0DFF8E480B5
:1025C0004FF0010C0168A8F11808414546D091422E
:1025D00044D0994242D0A14240D049453ED07145B5
:1025E0003CD0B9423AD0334A1832914236D0324ABE
:1025F000603A914232D0304A483A91422ED02E4A27
:10260000303A91422AD02C4A183A914226D0594564
:1026100024D0514522D0A94220D0B1421ED02A4A0E
:1026200091421BD0284A1432914217D0264A2832B0
:10263000914213D0244A3C3291420FD0224A503268
:1026400091420BD0204A6432914207D01E4A783220
:10265000914203D01C4A8C32914218D1016E0A6813
:1026600022F480720A6090F85C20816D02F01F02F3
:102670000CFA02F24A60D0E919124A60C16E31B117
:102680000A6822F480720A60D0E91C124A600022B3
:10269000016D80F835C080F8342001B188470020F2
:1026A000DCE60000280002405800024070000240B2
:1026B00088000240A00002407004024088040240EA
:1026C000A0040240B80402400854025890F83500B3
:1026D000704700002DE9FC5F0446F74E0020DFF84C
:1026E000D88300904FF41652F44808F11808A56DED
:1026F000DFF8C493DFF8C0A3016809F1300920684E
:102700000AF1480AB1FBF2F1B04201912F68D5F805
:1027100000C0DFF8ACB335D04146884232D04845DE
:1027200030D050452ED058452CD0E549183188423C
:1027300028D0E3493031884224D0E14948318842E9
:1027400020D0E04988421DD0DE491831884219D096
:10275000DC493031884215D0DA494831884211D0FD
:10276000DFF860E30EF1600E70450BD0D54A783289
:10277000904207D0D34B9033984203D0D149A8312F
:1027800088427DD194F85C20082102F01F0201FAF2
:1027900002F23A424AD0B04232D0404530D04845A9
:1027A0002ED050452CD058452AD0C54A18329042D8
:1027B00026D0C34A3032904222D0C14A4832904299
:1027C0001ED0C04A90421BD0BE4A1832904217D049
:1027D000BC4A3032904213D0BA4A483290420FD0AD
:1027E000B84A603290420BD0B64A7832904207D055
:1027F000B44A9032904203D0B24AA832904203D1F8
:10280000026802F0040202E0026802F008026AB103
:10281000026822F00402026094F85C0000F01F00DD
:102820008140A960606D40F00100606594F85C0033
:10283000012100F01F008140394240D02068B042A1
:1028400034D0404532D0484530D050452ED0584540
:102850002CD09B4A1832904228D0994A303290426C
:1028600024D0974A4832904220D0964A90421DD0B8
:10287000944A1832904219D0924A3032904200E085
:10288000AFE113D08F4A483290420FD08D4A603268
:1028900090420BD08B4A7832904207D0894A9032CE
:1028A000904203D0874AA83290427DD1406910F00F
:1028B000800F04D0A960606D40F00200606594F85C
:1028C0005C00042100F01F00814039423ED02068A6
:1028D000B04232D0404530D048452ED050452CD063
:1028E00058452AD0764A1832904226D0744A30325F
:1028F000904222D0724A483290421ED0714A904291
:102900001BD0704A1832904217D06E4A3032904233
:1029100013D06C4A483290420FD06A4A60329042DB
:102920000BD0684A7832904207D0664A9032904283
:1029300003D0644AA83290424ED1006810F0020FD2
:1029400004D0A960606D40F00400606594F85C00FC
:10295000102100F01F008140394258D02068B04259
:1029600034D0404532D0484530D050452ED058451F
:102970002CD0534A1832904228D0514A30329042DB
:1029800024D04F4A4832904220D04E4A90421DD027
:102990004C4A1832904219D04A4A3032904215D0EF
:1029A000484A4832904200E014E00FD0454A603275
:1029B00090420BD0434A7832904207D0414A90323D
:1029C000904203D03F4AA832904207D1006800F0FD
:1029D000080006E0006872E70068B7E7006800F0EA
:1029E0000400A0B1A96020680168490304D500680B
:1029F000000308D5A16C07E00168C90503D401688C
:102A000021F008010160216C09B12046884794F843
:102A10005C00202100F01F008140394279D02068FD
:102A2000B04232D0404530D048452ED050452CD011
:102A300058452AD0224A1832904226D0204A3032B5
:102A4000904222D01E4A483290421ED01D4A9042E7
:102A50001BD01C4A1832904217D01A4A303290428A
:102A600013D0184A483290420FD0164A6032904232
:102A70000BD0144A7832904207D0124A90329042DA
:102A800003D0104AA832904203D1006800F0100031
:102A900002E0006800F00200B0B3A96094F83500CD
:102AA0000428206801680FD049037ED50068000320
:102AB0002BD4616C2AE00000100002400C000024BE
:102AC000700002401004024021F0160101602068ED
:102AD000416921F080014161206C08B9A06C20B1EE
:102AE0002068016821F00801016094F85C303F2102
:102AF000012003F01F0300229940A96084F83500EB
:102B000084F83420216D65E003E0E16B09B12046D3
:102B10008847606D00287DD0606DC00759D020685F
:102B2000042184F83510B0422BD0404529D04845C7
:102B300027D0504525D0584523D09D49884220D0E4
:102B40009B49183188421CD099493031884218D0AD
:102B50009849884215D097491831884211D0954933
:102B6000303188420DD093494831884209D091498B
:102B70006031884205D08F497831884201D08D4933
:102B80009031016821F00101016020680099019AEB
:102B9000491C0091914202D80168C907F6D100682A
:102BA000C00710D003200FE0FFE70168C905ACD4CF
:102BB00003680121002223F01003036084F835101C
:102BC00084F83420A1E7012084F83500002084F83F
:102BD0003400E16C00291DD002B02046BDE8F05F52
:102BE0000847754988421DD073491431884219D06D
:102BF00071492831884215D06F493C31884211D043
:102C00006D49503188420DD06B496431884209D0FA
:102C1000694900E084E07831884203D066498C310C
:102C200088427DD194F85C800427016808F01F0871
:102C300007FA08F717EA0C0F009746D04F0744D55C
:102C400000980F04686003D5C8033CD4A16CC1E7A9
:102C5000880638D42068B0422DD055496039884262
:102C600029D0484527D0504525D0584523D0504934
:102C7000884220D04E49183188421CD04C4930310E
:102C8000884218D04B49884215D04A4918318842A9
:102C900011D04849303188420DD0464948318842E8
:102CA00009D0704507D0904205D0984203D04149E1
:102CB000A831884203D1016821F0080102E00168CF
:102CC00021F004010160216C84E7022707FA08F76C
:102CD00017EA0C0F00974ED08F074CD500980F04C1
:102CE000686003D5C80344D4616C73E7880640D498
:102CF0002068B0422FD02E49603988422BD04845F9
:102D000029D0504527D0584525D02949884222D07E
:102D10002749183188421ED025493031884200E0C9
:102D200044E018D02349884215D0224918318842FE
:102D300011D02049303188420DD01E494831884297
:102D400009D0704507D0904205D0984203D0194968
:102D5000A831884203D1016821F0140102E0016822
:102D600021F00A010160012184F83510002084F867
:102D70003400E16B2EE7082202FA08F212EA0C0F87
:102D800014D0090712D5016821F00E01016094F8F2
:102D90005C100120002201F01F0100FA01F16960BE
:102DA000606584F8350084F8342012E7BDE8FC9FA4
:102DB0008800024010040240085402582DE9F05FD8
:102DC000044600F00BFB002C07467DD0E34E0221A9
:102DD00020684FF00308DFF888934FF00005DFF814
:102DE00084A3B042DFF880B334D0DC4A183290427A
:102DF00030D048452ED050452CD058452AD0DA4AFC
:102E00001832904226D0D84A3032904222D0D64A48
:102E1000483290421ED0D54A90421BD0D34A183235
:102E2000904217D0D14A3032904213D0CF4A483224
:102E300090420FD0CD4A603290420BD0CB4A7832CC
:102E4000904207D0C94A9032904203D0C74AA83274
:102E500090427DD184F83510B04284F834502ED0A1
:102E6000BE49183188422AD0484528D0504526D03E
:102E7000584524D0BC491831884220D0BA49303155
:102E800088421CD0B8494831884218D0B749884296
:102E900015D0B6491831884211D0B4493031884232
:102EA0000DD0B2494831884209D0B04960318842DA
:102EB00005D0AE497831884201D0AC4990310168E3
:102EC00021F00101016008E027E100BF00F086FA6F
:102ED000C01B052801D920211CE120680068C0071B
:102EE000F4D104F108002168D4E9053C8E4685C878
:102EF00009681043D4E907281F43636A38439C4F8D
:102F000040EA0C001043394040EA0800042B40EA34
:102F1000010003D1D4E90B12114308439549096814
:102F20006FF30F01B1F1005F0FD36168A1F12902C6
:102F3000052A08D9163A032A05D9083A012A02D9DE
:102F40004F39032901D840F48010CEF8000000E08A
:102F500023E02068676A4069042F20F0070047EAF1
:102F600000070DD1D4E90A01074349B12046FFF714
:102F70008DF828B140206065012184F83510CCE03F
:102F8000206847612046FEF79FFF94F85C203F21B0
:102F900002F01F029140816054E0774A90421BD0BA
:102FA000754B1433984217D0734B2833984213D083
:102FB000714B3C3398420FD06F4B503398420BD03B
:102FC0006D4B6433984207D06B4B7833984203D0F3
:102FD000694B8C3398427DD184F8351084F8345095
:102FE000664B0168A26801EA030E402A73D0802A6A
:102FF00072D00022D4E90378D4E9053142EAD7023D
:1030000042EAD8085C4AD4E9077C48EAD30848EA8F
:10301000D10141EAD701524241EA1C11142341EA8D
:103020000E01016020681044B0FBF3F08000E06501
:103030002046FEF749FF94F85C20012102F01F02B0
:10304000914041602068B04257D0444918318842CD
:1030500053D0484551D050454FD058454DD04249A6
:103060001831884249D040493031884245D03E49E4
:103070004831884241D03D4988423ED03B491831D1
:1030800088423AD039493031884236D037494831C0
:10309000884232D03549603188422ED03349783168
:1030A00088422AD031499031884226D02F49A83110
:1030B000884222D0304988421FD02F49143188429B
:1030C0001BD02D492831884217D02B493C318842EA
:1030D00013D002E01DE017E018E027495031884284
:1030E0000BD025496431884207D023497831884282
:1030F00003D021498C31884229D12046FEF73EFF7A
:10310000A06880280CD00CE0102273E74FF48042B6
:1031100070E74021616584F835800120BDE8F09FAB
:103120006560216E20790860D4E91901416060680A
:10313000401E072808D82046FEF76EFFE06E0560A7
:10314000D4E91C01416002E0E5662567656701205E
:10315000656584F835000020E0E7000010000240BB
:10316000400002405800024070000240100402403B
:103170003F8010FE0010005C085402580F00FEFF54
:1031800070B5044600F02AF90546601C02D00448D8
:103190000078044400F022F9401BA042FAD370BD2D
:1031A000000000242DE9F84F03247D4D00234FF04B
:1031B00001094FF0B04B4FF00F0AE9E009FA03F7AD
:1031C0003A4076D00E7906F00306012E01D0022E89
:1031D00018D1D0F808C04FEA430ECE6804FA0EF8B2
:1031E0002CEA080C06FA0EF646EA0C068660D0F8C1
:1031F00004C00E792CEA070CC6F300169E4046EA7E
:103200000C0646600E79F643B6070BD0C6684FEA47
:1032100043088F6804FA08FC26EA0C0607FA08F748
:103220003743C7600E7906F00306022E12D1DE087E
:103230000F694FEA437C00EB8606B646366A4FEAD2
:10324000DC6C0AFA0CF807FA0CF726EA0806374392
:10325000CEF820700F7906684FEA430807F003079D
:1032600004FA08FC07FA08F726EA0C063743076059
:103270004E6816F4403F1CD04A4E376847F00207AC
:10328000376036689F0706F00206009623F00306B3
:1032900006F1B046B6463F0FD6F80864DFF808815D
:1032A0000AFA07FC404526EA0C0603D14FF0000C51
:1032B00041E06CE0DFF8F4C0604502D14FF0010C52
:1032C00039E0DFF8ECC0604502D14FF0020C32E08B
:1032D000DFF8E0C0604502D14FF0030C2BE0DFF8CF
:1032E000D8C0604502D14FF0040C24E0DFF8CCC018
:1032F000604502D14FF0050C1DE0DFF8C4C0604509
:1033000002D14FF0060C16E0DFF8B8C0604502D1DC
:103310004FF0070C0FE0DFF8B0C0604502D14FF06E
:10332000080C08E0DFF8A4C0604502D14FF0090C9A
:1033300001E04FF00A0C0CFA07FC4CEA060CCEF840
:1033400008C44F68DBF80060FF0226EA020600D5D9
:1033500016435F46CBF80060D1F804C0DBF8046088
:103360005FEA8C2C26EA020600D516437E606E6862
:103370004F6826EA0206BF0300D516436E602E682A
:103380004F6826EA0206FF0300D516432E605B1C39
:103390000A6832FA03F67FF411AFBDE8F88F000037
:1033A00080000058F44402580000025800040258FB
:1033B00000080258000C025800100258001402586D
:1033C00000180258001C025800200258002402581D
:1033D00001480068000C70470010005C01488068DC
:1033E000704700000000002430B590F84120202AEA
:1033F00024D190F84020012A20D0012380F84030C9
:10340000242280F84120202300240268156825F03A
:10341000010515600268156825F48055156002687D
:1034200015680D43156001680A6842F001020A60E0
:1034300080F8413080F84040002030BD022030BD8F
:1034400030B590F84120202A22D190F84020012A5E
:103450001ED0012380F84030242280F8412020240F
:1034600000250268136823F00103136002681368E3
:1034700023F4706343EA0121116001680A6842F095
:1034800001020A6080F8414080F84050002030BDC1
:10349000022030BD074908B50A6842F002020A60FE
:1034A000096801F00201009103490A6802430A60B9
:1034B00008BD0000F44402580404005870477047E7
:1034C00030B403689A691968D243D40509D4CC434F
:1034D000240606D4456C4FF4807445F0010545641C
:1034E000DC6153050AD4CB431B0607D4446C4FF46C
:1034F000806344F0080444640468E36192050AD4DC
:10350000C943090607D4426C4FF4007142F002022D
:1035100042640268D161416C11F00B0F02D030BCE3
:1035200002F060B930BC70470268436B9169126861
:10353000002B00D0184770477047000070B504009A
:1035400004D094F84100002510B106E0012070BDC0
:10355000204684F8405000F059F9242084F84100B6
:103560002068016821F001010160D4E9001020F019
:10357000706008612068816821F400418160E06822
:1035800021680128A06830D040F404408860E068D9
:103590000228206841682BD021F400614160206836
:1035A0002021154A4368134343602068C26822F40F
:1035B0000042C26054F8106B0DCC104340EA032067
:1035C000F06054F81C3CD4E900021043186054F831
:1035D0001C0D026842F001020260656484F841102B
:1035E000256384F84250002070BD40F40040CDE7D0
:1035F00041F40061D2E7000000800002704770478C
:103600000249884201D104F049B870471C000024E7
:103610002DE9FF4F81B0044690F84100994690464D
:10362000DDF838B020287BD194F84000012877D00D
:10363000012084F84000FFF7D1FE0122064619233D
:103640000090D103204602F098FF002853D1414951
:1036500021220025C4F82480102084F84120FF276F
:1036600084F842006564A4F82A90608D4FF0807958
:103670004FF0007A6563FF2802D94B46278505E0A5
:10368000608D534620850004000C10D0226898F805
:1036900000009062606A401C6062608D401E608520
:1036A000208D401E2085401C0091C2B201E0002206
:1036B00000910299204602F033FF13E002F0C7FFA9
:1036C000C8B9606A216800788862606A401C6062DC
:1036D000608D401E6085208D401E80B22085618DEA
:1036E00001B160B1608D3246594600282046E5D1CF
:1036F00002F081FFE0B1012005B0BDE8F08F0022AB
:103700005B4680212046009602F037FF0028F2D168
:10371000608DFF2805D927853A464B460095C8E7B6
:1037200016E0608D53462085009594F82820C0E768
:1037300021682020084AC86121684B6813404B600B
:1037400084F8410084F84250002084F84050D3E7C8
:103750000220D1E70020008000E800FEF8B5044612
:1037600090F84100202846D120688569ED432D045A
:1037700041D594F84050012D3DD0DFF880C021267E
:10378000102784F84160002584F8427065646385E1
:10379000C4F82CC0638D0127194E6663FF2B194EA8
:1037A000626284F8407003D9FF272785F30206E0A0
:1037B000678D4FF0007327853F043F0C0ED01278C1
:1037C0008262606A401C6062608D401E6085208D50
:1037D000401E2085401C0096C2B201E000220096E7
:1037E000204602F09DFE0121204684F8405001F061
:1037F00059FF0020F8BD0220F8BD00000000FFFFC7
:10380000915F0008002000807047704770B5B6B027
:103810000646142130A8FCF7D4FEC0216846FCF708
:10382000D0FE2B493068884250D1002021900821D9
:103830000546CDE90010684600F07AFA08B1FEF7B7
:1038400050FC2448016841F002010160006830AB7F
:10385000122100F0020035904FF44060042283E80A
:1038600023001D4830A9CDE93352FFF79BFC1948CE
:103870000830016841F48001016000682421174C80
:10388000402200F480003590154884E82700031595
:103890002046C4E90435A561E56125626562FFF74C
:1038A0008DFA08B1FEF71DFC0022B46321201146F9
:1038B000A66300F08BF8212000F07AF80022222085
:1038C000114600F083F8222000F072F836B070BD87
:1038D00000580040E04402580004025870000024E0
:1038E0001000024070477047024881680278114416
:1038F0008160704700000024032010B500F086F8B6
:1039000001F060F80F4A104914681368C4F30322E9
:1039100003F00F038A5CC95C02F01F0201F01F0173
:10392000D0400A4A20FA01F11160094908600F20CD
:1039300000F010F808B1012010BD00F02BF80020B5
:1039400010BD0000184402584E8C000810000024DE
:103950000C00002470B50D4D04462878A0B14FF43A
:103960007A71B1FBF0F00A490968B1FBF0F001F09F
:1039700086FB48B9102C07D200222146501E00F0C9
:1039800025F800206C6070BD012070BD000000248F
:103990000C000024054808B5016841F002010160EF
:1039A000006800F00200009008BD0000F4440258D6
:1039B000002809DB410900F01F028900012001F104
:1039C000E0219040C1F80001704700000E4BF0B4B8
:1039D0001B680D46C3F30223C3F10706042E00D96A
:1039E0000426191D072901D2002300E0DB1E012453
:1039F00004FA06F19C40491E2940641E9940144077
:103A00002143F0BC04F067BD0CED00E0064900F076
:103A1000070210B54FF6FF040868044B204040EA47
:103A200002201843086010BD0CED00E00000FA050C
:103A3000134970B50A68D243520705D5096801F0E9
:103A40000701814213D118E00A6822F007020243FD
:103A50000A60FFF7C3FC0A4D4FF47A760446083D2E
:103A600007E000BFFFF7BAFC001BB04201D90120FC
:103A700070BD2868C0438004F4D4002070BD0000ED
:103A80000C48025810B500F057FF05490968054A6F
:103A9000C1F30211515C01F01F01C84010BD0000CC
:103AA000204402584E8C0008494930B5484C0B1D43
:103AB0000A68143409681D68246802F00303C5F31A
:103AC0000012C1F30531C4F3CC04002914FB02F247
:103AD00000EE102AF8EE400A75D03F4A9FED3D1ADD
:103AE000B7EE000A6BB1DFED3D1A012B01D0022BBE
:103AF00064D002EE101A1168F8EE422A81EEA22A72
:103B000021E0334C283C23689B0612D5344B2468B3
:103B100001EE901A1168C4F3C104F8EE612AE34083
:103B200001EE903AC1F30801F8EE611A81EEA22A83
:103B30000BE001EE901ADFED2B2A00BFF8EE611AC0
:103B4000116882EEA12AC1F3080101EE901A1168F2
:103B5000F8EE611A40EE811A71EE800A62EE200AD8
:103B6000C1F3462101EE101AB8EE411A31EE001AE7
:103B7000C0EE811ABCEEE11A80ED001A1168C1F3A3
:103B8000064101EE101AB8EE411A31EE001AC0EEED
:103B9000811ABCEEE11A80ED011A1168C1F30661C9
:103BA00001EE101AB8EE411A31EE000A80EE801ACA
:103BB000BCEEC10A80ED020A30BD04E001EE901AAD
:103BC000DFED092ABAE70021016041608160F3E777
:103BD0002844025800000039384402580024744A2E
:103BE0000090D0030024744C20BCBE4B494930B532
:103BF000484C0B1D0A681C3409681D68246802F0D3
:103C00000303C5F30022C1F30551C4F3CC0400291A
:103C100014FB02F200EE102AF8EE400A75D03F4A7B
:103C20009FED3D1AB7EE000A6BB1DFED3D1A012B97
:103C300001D0022B64D002EE101A1168F8EE422A6D
:103C400081EEA22A21E0334C283C23689B0612D542
:103C5000344B246801EE901A1168C4F3C104F8EEE5
:103C6000612AE34001EE903AC1F30801F8EE611ACF
:103C700081EEA22A0BE001EE901ADFED2B2A00BFA5
:103C8000F8EE611A116882EEA12AC1F3080101EE73
:103C9000901A1168F8EE611A40EE811A71EE800AEE
:103CA00062EE200AC1F3462101EE101AB8EE411A65
:103CB00031EE001AC0EE811ABCEEE11A80ED001A56
:103CC0001168C1F3064101EE101AB8EE411A31EE47
:103CD000001AC0EE811ABCEEE11A80ED011A1168DB
:103CE000C1F3066101EE101AB8EE411A31EE000A76
:103CF00080EE801ABCEEC10A80ED020A30BD04E0FD
:103D000001EE901ADFED092ABAE700210160416057
:103D10008160F3E72844025800000039404402580B
:103D20000024744A0090D0030024744C20BCBE4B85
:103D30002DE9FE4F0546DFF8E48350F8081B002408
:103D4000F64FC943019005F12800264608F12408E2
:103D5000009008011DD4A86E50B1B0F5801F0CD0A2
:103D6000B0F5001F0ED0B0F5401F1ED001240FE0AB
:103D7000386840F40030386017E00198022103F001
:103D800049FD03E00098022103F0D4FD04000CD0AB
:103D900026462888C043C00523D4A86D05281ED216
:103DA000DFE800F00C11161B1B00AA6ED8F80010FB
:103DB00021F440111143C8F80010EAE7386840F4D4
:103DC0000030386009E00198002103F023FD03E092
:103DD0000098002103F0AEFD044674B100E0012418
:103DE00026462888C043800528D4E86D80281ED048
:103DF0000CDC90B140280ED114E0AA6DD8F8001068
:103E000021F007011143C8F80010EAE7C02813D0D9
:103E1000B0F5807F10D001240FE0386840F4003006
:103E2000386009E00198002103F0F4FC03E00098F9
:103E3000002103F07FFD04469CB126462888DFF868
:103E4000DC92C04309F12C0940052CD4D5F8A80018
:103E5000B0F5800F20D00DDCA0B1B0F5001F0FD160
:103E600015E0EA6DD8F8001021F4E0711143C8F8AC
:103E70000010E3E7B0F5C00F13D0B0F5000F10D07D
:103E800001240FE0386840F40030386009E0019800
:103E9000002103F0BFFC03E00098002103F04AFD7D
:103EA00004467CB126462888C04300052DD4D5F8A9
:103EB000AC00B0F1007F21D00EDCA8B1B0F1807F62
:103EC00010D116E0D5F8A820D9F8001021F460012F
:103ED0001143C9F80010E6E7B0F1407F13D0B0F10C
:103EE000806F10D001240FE0386840F40030386053
:103EF00009E00198002103F08DFC03E00098002107
:103F000003F018FD044674B126462868C0438001BA
:103F10001FD4E86CD8B110280FD0202812D0302838
:103F200015D0012414E0D5F8AC20D9F8001021F008
:103F3000E0611143C9F80010E7E7386840F4003049
:103F4000386004E00198022103F064FC044674B177
:103F500026462888C043C0042BD4286EB0F5005FE5
:103F600020D00DDCA0B1B0F5805F0FD115E06B481B
:103F7000EA6C2030016821F0300111430160E8E76C
:103F8000B0F5405F13D0B0F5804F10D001240FE0A2
:103F9000386840F40030386009E00198002103F0EF
:103FA00039FC03E00098002103F0C4FC04468CB106
:103FB00026462888C043800429D4686EB0F5403F67
:103FC00023D010DC08B3B0F5803F14D0B0F5003F2B
:103FD0000FD115E02A6ED8F8001021F4E04111430A
:103FE000C8F80010E5E7B0F5802F0ED0B0F5A02F8F
:103FF0000BD001240AE00198012103F00BFC03E03F
:104000000098012103F096FC044694B126462888C6
:10401000C04340042AD4D5F8B000B0F1405F23D0AB
:1040200010DC08B3B0F1805F14D0B0F1005F0FD1A5
:1040300015E06A6ED8F8001021F4E0211143C8F8A9
:104040000010E4E7B0F1804F0ED0B0F1A04F0BD0DC
:1040500001240AE00198012103F0DCFB03E0009851
:10406000012103F067FC044674B126462888C0434A
:1040700000041FD4286FD8B1B0F1805F0ED0B0F12A
:10408000005F10D0012414E0D5F8B020D9F800105A
:1040900021F0E0411143C9F80010E7E7386840F427
:1040A0000030386004E00198012103F0B3FB0446BE
:1040B00074B126462868C043C0011ED4A86CD0B194
:1040C00001280ED0022811D0032814D0012413E0B7
:1040D0002A6FD8F8001021F040511143C8F80010A1
:1040E000E8E7386840F40030386004E001980221C5
:1040F00003F090FB0446ACB126462868DFF81CB0FC
:10410000C043ABF11C0B400252D40548016841F496
:1041100080710160FFF762F9824611E02C44025879
:1041200000480258FA48AA6C016821F003011143C3
:104130000160E2E7FFF752F9A0EB0A00642835D8E6
:10414000F4480068C005F5D58CBBDFF8C4A3B5F80A
:10415000B4100AF1240ADAF8000001F4407100F406
:104160004070884211D0DAF80010DAF8002021F40B
:10417000407142F48032CAF80020DAF8002022F4BC
:104180008032CAF80020CAF80010D5F8B400B0F5A3
:10419000807F1AD1FFF722F9029012E0FFF71EF993
:1041A0000299411A41F2883081420AD903242646F5
:1041B0002878DFF85CA3C0430AF1080AC00721D0C1
:1041C0003CE0DAF800008007E8D5D5F8B410C1F378
:1041D0000120032858460DD0016821F47C5101606C
:1041E000B5F8B420DAF80010C2F30B021143CAF894
:1041F0000010DDE7C84A036802EA111223F47C517B
:104200001143ECE7E86F182816D005DCA0B10828A8
:1042100008D0102804D10AE020280DD028280BD07F
:1042200001240AE00198012103F0F4FA03E0009868
:10423000012103F07FFB044664B126462878C04381
:1042400080071ED4A86F062819D2DFE800F0160CEC
:1042500011161616EA6FDAF8001021F03801114332
:10426000CAF80010EAE70198012103F0D3FA03E04D
:104270000098012103F05EFB04467CB100E00124BC
:1042800026462878C04340071FD4D5F89400062856
:1042900019D2DFE800F0160C11161616AA6FDAF81C
:1042A000001021F007011143CAF80010E9E7019856
:1042B000012103F0AFFA03E00098012103F03AFB7B
:1042C0000446A4B100E0012426462878C0438006B5
:1042D0002BD4D5F89000B0F1405F24D011DC10B39E
:1042E000B0F1805F15D0B0F1005F10D116E0D5F8C5
:1042F0009420D9F8001021F007011143C9F80010EB
:10430000E3E7B0F1804F0ED0B0F1A04F0BD0012405
:104310000AE00198002103F07DFA03E000980221F1
:1043200003F008FB044694B126462878C0434006B3
:104330002BD4D5F89C00B0F5406F24D011DC10B31D
:10434000B0F5806F15D0B0F5006F10D116E0D5F83C
:104350009020DAF8001021F0E0411143CAF8001073
:10436000E3E7B0F5805F0ED0B0F5A05F0BD001247D
:104370000AE00198002103F04DFA03E000980221C1
:1043800003F0D8FA044694B126462878C0430006C4
:104390002BD4D5F8A000B0F5C04F24D011DC10B359
:1043A000B0F5005F15D0B0F5804F10D116E0D5F80C
:1043B0009C20D9F8001021F4E0511143C9F80010F5
:1043C000E3E7B0F5004F0ED0B0F5204F0BD001243D
:1043D0000AE00198002103F01DFA03E00098022191
:1043E00003F0A8FA044654B126462878C0430007D3
:1043F0001ED4D5F88400B0F5805F0AD00FE0D5F860
:10440000A020D9F8001021F460411143C9F8001030
:10441000EBE70098022103F08DFA00B10126D5F8F0
:104420008420DAF8001021F440511143CAF800103A
:104430002878C043C00613D4D5F89800B0F5807F23
:1044400005D10098022103F075FA00B10126D5F8D4
:104450009820D9F8001021F440711143C9F80010D8
:104460002868C043000316D4D5F8A40038B1B0F5CD
:10447000803F09D0B0F5003F0BD001240AE001983D
:10448000002103F0C7F903E00098022103F052FA7B
:1044900004468CB126462868C043400322D4D5F890
:1044A0008800B0F5801F11D0B0F5001F13D0B0F513
:1044B000401F15D0012414E0D5F8A420D9F800102D
:1044C00021F440311143C9F80010E4E7386840F4A2
:1044D0000030386004E00098012103F02BFA044614
:1044E0005CB126462868C043C00323D4286DA8B118
:1044F000B0F5803F17D001241BE0D5F88820DAF80A
:10450000001021F440111143CAF80010EAE700003E
:104510004C44025800480258CFFFFF00386840F46E
:104520000030386004E00198022103F073F904467A
:10453000E4B126462868C043800005D400980221D3
:1045400003F0F8F900B101262868C04380031BD4AA
:10455000D5F88000B0B1B0F5807F0FD0B0F5007F06
:1045600010D0B0F5407F0DD001240CE05A482A6DE0
:10457000016821F4803111430160DBE7386840F4C1
:1045800000303860ECB326462868C043C00207D428
:104590006A6FD8F8001021F000411143C8F80010EC
:1045A0002868C043C00008D4D5F8B820DBF8001054
:1045B00021F480411143CBF800102868C0438002E9
:1045C00007D4EA6ED8F8001021F080711143C8F8C2
:1045D00000102868C04340000CD4DBF8001021F420
:1045E0000041CBF80010DBF80010D5F8BC201143D7
:1045F000CBF800102868C04308D437486A6D0168BA
:1046000000E018E021F04051114301602868C043E8
:10461000000208D4D5F88C20DAF8001021F440010B
:104620001143CAF8001028790024C04300F00100AB
:1046300020430AD00FE0D5F88020DAF8001021F4EA
:1046400040711143CAF800109EE70198002103F061
:10465000E1F800B106462879C04300F0020020438B
:1046600005D10198012103F0D5F800B1064628795B
:10467000C04300F00400204305D10198022103F05B
:10468000C9F800B106462879C04300F0080020436D
:1046900005D10098002103F04DF900B106462879B4
:1046A000C04300F01000204305D10098012103F021
:1046B00041F900B106462879C04300F020000443C8
:1046C00004D10098022103F035F900B916B1012098
:1046D000BDE8FE8F0020FBE74C4402582DE9F05F57
:1046E00004000F467ED0DFF83882D8F8000000F0D2
:1046F0000F00B8420CD2D8F8001021F00F01394356
:10470000C8F80010D8F8000000F00F00B84269D1D6
:104710002078844D40070AD52069296801F070018E
:10472000884204D9296821F070010143296020786A
:104730007C4E361D00070AD56069316801F07001B2
:10474000884204D9316821F070010143316020783A
:10475000C0060AD5A069316801F4E061884204D935
:10476000316821F4E061014331602078DFF8B4B1B1
:1047700080060BF1080B0CD5E1695846DBF80020E8
:1047800002F07002914204D9026822F070020A43DA
:104790000260207880070AD5E068296801F00F01DF
:1047A000884204D9296821F00F010143296020784B
:1047B000C0073ED05B49A2682868183920F47060B1
:1047C000104328606068022818D0032819D00968AF
:1047D000012819D0490700294ADADFF848A1AAF1CF
:1047E000080A00E044E0DAF8002022F00702024361
:1047F000CAF80020FEF7F2FD814612E0096889033D
:10480000E9E709688901E6E7C905E4E7FEF7E6FD9F
:10481000A0EB090141F28830814202D90320BDE8B2
:10482000F09F6168DAF8000000F03800B0EBC10FCB
:10483000ECD1207880070AD5E068296801F00F01E3
:10484000884204D2296821F00F0101432960D8F879
:104850000010404601F00F01B9420BD9016821F068
:104860000F0139430160006800F00F00B84201D029
:104870000120D4E7207840070AD52069296801F093
:104880007001884204D2296821F070010143296037
:10489000207800070AD56069316801F0700188420C
:1048A00004D2316821F07001014331602078C006E4
:1048B0000AD5A069316801F4E061884204D2316808
:1048C00021F4E06101433160207880060CD5E16974
:1048D0005846DBF8002002F07002914204D20268D0
:1048E00022F070020A43026000F06CF80E492A6858
:1048F0002B68C2F3032203F00F038A5CC95C02F049
:104900001F0201F01F01D040084A20FA01F1116096
:104910000749086007480068BDE8F05FFFF71AB86C
:1049200000200052184402584E8C00081000002449
:104930000C0000240400002430B500F043F80B4ABA
:104940000B490C4B15681468C5F3032204F00F04DF
:104950008A5C095D02F01F0201F01F01D040064A87
:1049600020FA01F119601060084630BD1844025861
:104970004E8C0008100000240C00002400B5FFF746
:10498000DBFF05490968054AC1F30211515C01F0DA
:104990001F01C84000BD00001C4402584E8C000896
:1049A00000B5FFF7C9FF05490968054AC1F30221AF
:1049B000515C01F01F01C84000BD00001C440258BA
:1049C0004E8C0008454970B545480968434B103B7B
:1049D00011F0380208D00111082A03D0102A0BD098
:1049E000182A0BD0084670BD19688906FBD51968CE
:1049F000C1F3C101C84070BD3A4870BD3749374D59
:104A000018310C1D24350A68096826682D6802F0E3
:104A1000030406F00102C1F30511C5F3CC0515FB33
:104A200002F200EE102AB8EE400AE9B32F4ADFED99
:104A30002E0AB7EE001A6CB1DFED2D1A012C01D051
:104A4000022C43D002EE101A1068F8EE422A81EED2
:104A5000A22A1EE01C68A40611D51B6801EE901A5C
:104A60001168C3F3C103F8EE612AD84001EE900A41
:104A7000C1F30800F8EE611A81EEA22A0BE001EE04
:104A8000901ADFED1C2A00BFF8EE611A106882EE62
:104A9000A12AC0F3080001EE900AF8EE611A40EE78
:104AA000201A31EE810A00E015E022EE000A1068BB
:104AB000C0F34620401C00EE900AF8EE600A80EE3B
:104AC000201ABCEEC10A10EE100A70BD01EE901A59
:104AD000DFED092AD8E7002070BD0000104402581D
:104AE0000090D00340787D01000000393044025826
:104AF0000024744A0024744C20BCBE4B2DE9F05FA6
:104B000004007DD0FF4F2078FE4D1837DFF8F49376
:104B1000103DC00748D0D9F80000396800F03800CF
:104B2000102815D0182803D101F0030002280FD057
:104B30006068B0F5803F12D010B1B0F5A02F18D04A
:104B4000286820F480302860286820F4802009E05C
:104B50002868800328D560680028D2D024E028681F
:104B600040F480302860606888B1FEF737FC064664
:104B700009E0286840F480202860F0E7FEF72EFC6A
:104B8000801B64286FD828688003F7D50CE0FEF7F7
:104B900025FC064605E000BFFEF720FC801B6428CC
:104BA000F0D828688003F7D4207841F20308D54E66
:104BB0000C3E800769D5D9F80000396810F038003C
:104BC0000ED0182801D188070AD0E06890B3296870
:104BD00021F0190101432960FEF700FC824631E013
:104BE0002868400702D5E06800288AD0E168286874
:104BF00020F0190008432860FEF7F0FB824607E02A
:104C0000DFE000BFFEF7EAFBA0EB0A000228B9D8FC
:104C100028684007F6D500BFFEF7DAFB40451BD8F1
:104C20002069402812D0316821F47C3141EA0030FB
:104C300030602AE018E000BFFEF7D0FBA0EB0A00CE
:104C400002289FD828684007F6D5E5E7306820F4A9
:104C50007C3040F40030EBE7207C316821F0FE41ED
:104C600041EA0060E4E70DE1286820F001002860D7
:104C7000FEF7B4FB824605E0FEF7B0FBA0EB0A00AE
:104C800002288DD828684007F6D42078C0065DD564
:104C9000D9F80000DFF86CB2396800F03800ABF1E9
:104CA000040B082810D0182803D101F003000128B4
:104CB0000AD0E0690028286838D040F080002860D9
:104CC000FEF78CFB824623E02868C00523D5E06907
:104CD000802876D11FE0206A202821D0316821F079
:104CE000F84141EA8060306030E000BF94F8201065
:104CF000DBF8002022F07C5242EA0161CBF8001080
:104D000024E000BFFEF76AFBA0EB0A00022898D857
:104D10002868C005F6D5FEF75BFB4045E6D8DAE724
:104D2000306820F0F84040F08040DCE720F0800060
:104D30002860FEF753FB064605E000BFFEF74EFB7A
:104D4000801B02289DD82868C005F7D4207800076A
:104D500029D56C486169643000298046016811D00A
:104D600041F001010160FEF739FB064605E000BF96
:104D7000FEF734FB801B0228C9D8D8F80000800752
:104D8000F6D510E021F001010160FEF727FB064691
:104D900005E000BFFEF722FB801B022872D8D8F87E
:104DA00000008007F6D42078800623D5A06900286B
:104DB000286810D040F480502860FEF70FFB0646AC
:104DC00005E036E1FEF70AFB801B02285AD8286866
:104DD0008004F7D50EE020F480502860FEF7FEFA3C
:104DE000064604E0FEF7FAFA801B02284AD8286833
:104DF0008004F7D4207840074FD5DFF80C81D8F82D
:104E0000001041F48071C8F80010FEF7E7FA06467A
:104E100005E000BFFEF7E2FA801B642832D8D8F81C
:104E20000000C005F6D5374EA068603601280AD0CC
:104E300008B1052813D0306820F0010030603068D8
:104E400020F0040002E0306840F001003060A0680B
:104E500041F2883A90B1FEF7C1FA80460AE0306824
:104E600040F004003060EEE7FEF7B8FAA0EB08016E
:104E7000514507D830688007F6D50EE0FEF7AEFA48
:104E8000804607E084E000BFFEF7A8FAA0EB080127
:104E900051457DD830688007F6D4606AB0B3DFF83A
:104EA0006480D9F8001008F120084FF6F87B08F16B
:104EB0000409C1F3C2010329A8F1040A69D0022838
:104EC000286820F08070286003D0FEF787FA044637
:104ED00084E0FEF783FA064605E000BFFEF77EFA9F
:104EE000801B022877D828688001F7D4E26A40F254
:104EF000F331386854F8283F884340EA02101843D9
:104F0000386004E01044025800480258B5E0217BA4
:104F1000434622894FF4FE0C208A4FF0FE47490297
:104F2000267D521E401EA1F50071C2F308088AB208
:104F3000761E0CEA004042EA08020243504607EAA5
:104F400006610A431A60DAF8002022F00102CAF86A
:104F50000020D9F80020266A22EA0B0242EAC602A3
:104F6000C9F80020DAF80010A26921F00C01114301
:104F7000CAF800100168E26921F0020111430160E2
:104F8000016841F480310160016841F4003101E0C1
:104F900021E027E00160016841F48021016001689F
:104FA00041F001010160286840F080702860FEF740
:104FB00015FA044605E000BFFEF710FA001B0228B0
:104FC00009D828688001F7D557E000BFFEF706FA38
:104FD000001B022802D90320BDE8F09F2868800149
:104FE000F4D44AE039680128D8F8000021D0A26A38
:104FF00001F0030393421CD1E26AC1F305118A4216
:1050000017D1216BC0F30802491E8A4211D1616B8E
:10501000C0F34622491E91420BD1A16BC0F3064258
:10502000491E914205D1E16BC0F30660491E8142E1
:1050300001D00120D0E7A16C4E46D9F80000C0F3A2
:10504000CC00814219D0DAF80000554620F001006A
:10505000CAF80000FEF7C2F94FEA0007FEF7BEF9F2
:10506000B842FBD0A26C306820EA0B0040EAC200D4
:105070003060286840F0010028600020ACE7401E46
:10508000B0F1807F10B501D3012010BD4FF0E024B6
:1050900060610F21601703F01EFA0020A061072154
:1050A000216110BD30B590F88410012918D001227B
:1050B00080F884202421C0F8881000222024016870
:1050C0000B680D6823F0005325F001050D60426662
:1050D00001680B60C0F8884080F88420104630BD1D
:1050E000022030BD7047704770B5044690F88400C8
:1050F00001281DD0012284F884202420C4F88800CF
:1051000020680568026822F0010202602068826857
:1051100022F060620A438260204602F08DFE22681F
:10512000202100201560C4F8881084F8840070BD28
:10513000022070BD70B5044690F8840001281DD08F
:10514000012284F884202420C4F88800206805689F
:10515000026822F0010202602068826822F0604248
:105160000A438260204602F067FE22682021002068
:105170001560C4F8881084F8840070BD022070BDEA
:1051800070477047704700002DE9F041076800251F
:10519000044640F60F030226F8693968BA681842D7
:1051A0000AD183067ED501F0200302F0805C53EA29
:1051B0000C0377D0616F74E1CF4BDFF840C313402D
:1051C00001EA0C0C53EA0C0C6CD05FEAC07C0CD0EA
:1051D0005FEAC15C09D54FF0010CC7F820C0D4F8D4
:1051E000907047F00107C4F89070870709D5D7077A
:1051F00007D027683E62D4F8906046F00406C4F8F1
:10520000906046070AD5D60708D0276804263E6274
:10521000D4F8906046F00206C4F8906006070CD5FA
:1052200001F020061E4308D0266808233362D4F814
:10523000903043F00803C4F8903003050BD54B01C0
:1052400009D526684FF400633362D4F8903043F0F8
:105250002003C4F89030D4F89030002B3DD0800665
:1052600009D501F0200002F08051084303D0616F9E
:1052700009B1204688472168D4F89000896849061A
:1052800002D410F0280F2AD0204602F0BBFE20687E
:10529000806840061ED52068083050E8001F21F0C5
:1052A000400100E021E040E80012002AF3D1D4F8E8
:1052B000800078B192490165D4F88000FDF7C4F808
:1052C00000280AD0D4F88000016D00E02046BDE837
:1052D000F04108472046FFF755FFBDE8F081204622
:1052E000FFF750FFC4F89050F7E7D4F86CC02023C4
:1052F000BCF1010F7ED15FEAC06C7BD55FEAC16C67
:1053000078D51020386220688068400673D5D4F8BC
:1053100080107C4A0868904234D07A4A1832904211
:1053200030D0784A303290422CD0764A483290427F
:1053300028D0744A6032904224D0724A7832904227
:1053400020D0704A903290421CD06E4AA8329042CF
:1053500018D06D4A904215D06B4A1832904211D045
:10536000694A303290420DD0674A4832904209D0A3
:10537000654A6032904205D0634A7832904201D04B
:10538000614A903240680004000CA6D0B4F85C205A
:105390008242A2D9A4F85E00C869B0F5807F2FD000
:1053A000216851E8000F20F4807041E80002002AD3
:1053B000F6D12068083050E8001F21F0010140E8D4
:1053C0000012002AF5D12068083050E8001F21F0B3
:1053D000400140E80012002AF5D1C4F88C30E5669F
:1053E000216851E8000F20F0100041E80002002A77
:1053F000F6D101E040E00BE0D4F88000FCF774FE49
:105400002667B4F85C00B4F85E10401A81B22FE051
:10541000B4F85C00B4F85E10B4F85E20401A81B2B3
:10542000002AB2D00029B0D0226852E8000F20F440
:10543000907042E80007002FF6D1344F206800F149
:10544000080050E8002F02EA070240E8002CBCF1F7
:10545000000FF3D1C4F88C30E5666567206850E82A
:10546000002F22F0100240E80023002BF6D126671F
:105470002046FFF737FE30E7C60209D5560207D5AA
:105480004FF4801038622046BDE8F041FFF779BE46
:1054900006060AD501F0800602F40002164304D085
:1054A000A16F00297FF412AF17E7420611D54A0613
:1054B0000FD52046026852E8001F21F0400142E863
:1054C0000014002CF6D1C0F88830856700F0A2F8EF
:1054D00003E7020206D54A0004D52046BDE8F041A4
:1054E000FFF74EBEC001C6D50029C4DA2046BDE88C
:1054F000F041FFF7F8BD000001000010200100049A
:10550000EF7F00081000024010040240FEFFFFEF92
:1055100010B5040003D0D4F8880010B107E00120D2
:1055200010BD002084F88400204600F027F82420D5
:10553000C4F888002068016821F001010160A06AB8
:1055400010B1204602F09AFC204602F085FD0128A9
:10555000E6D02068416821F490414160206881686C
:1055600021F02A0181602068016841F00101016099
:105570002046BDE8104002F0E5BC000010B5B6B012
:105580000446142130A8FBF71CF8C0216846FBF73D
:1055900018F81D492068884233D100201F9001214E
:1055A0000446CDE900106846FEF7C2FB08B1FCF7DF
:1055B00098FD1648016841F010010160006800F094
:1055C0001000359011481038016841F00201016067
:1055D000006830AB022100F0020035904FF44040EB
:1055E000042283E813000A4830A9CDE93342FDF7CD
:1055F000D9FD002225201146FEF7E8F92520FEF707
:10560000D7F936B010BD000000100140F044025838
:10561000000402587047FEE70148FDF751BF000043
:105620001C0000240148FDF77FBF00001C0000247F
:10563000806B0021826B02B11165C26B02B11165F2
:1056400000F086BFCA074FF028034FF0000210B5E4
:1056500006D090F84140422233EA040400D0F222FE
:105660008C0707D590F8414042F04402A34301D093
:1056700042F0B0020B0401D542F0B802102904D068
:10568000202905D0402906D007E042F0900204E02E
:1056900042F0200201E042F04002006801689143BC
:1056A000016010BD10B51E4C0022436BA34217D001
:1056B0001C4CA34214D01C4CA34211D00B0400D5A7
:1056C000B822CB0701D042F0F2028B0701D542F09D
:1056D000F402102916D020291CD142F0200219E032
:1056E0000B0400D5B822CB0701D042F0F2028B07A1
:1056F00001D542F0F402102904D0202905D0402918
:1057000006D007E042F0900204E042F0600201E0BF
:1057100042F04002006801681143016010BD0000C2
:10572000815E0008FD610008C160000801688A69A7
:10573000D243920701D400228A6200688169C9437A
:10574000C90703D0816941F00101816170472DE9EA
:10575000F047044690F841002822002508218243A2
:10576000206804D0C16184F84050BDE8F0878769A3
:1057700086694FF0FE088268D0F80CC04FF40049EB
:10578000E36808EA16460CF0FE08022BC7F3004750
:10579000C2F3090207D049462046FFF753FF3246BD
:1057A00084F8405010E0062306F0060603EAD21300
:1057B0009E420ED1A36C5B1CA364A36C022BD4D1BC
:1057C000A564C16184F8405039462046FDF777FE54
:1057D000CBE749462046FFF735FF424684F8405064
:1057E000F2E7000070B5444A044690F841000025F5
:1057F00084F84250E2626585626C282842EA010220
:10580000626433D0292831D02A282FD048F20301EE
:105810002046FFF717FF2046FFF788FF94F8410066
:10582000602813D0202184F8411020688269D24377
:1058300092060BD48269D243D20605D41022C261EB
:10584000606C40F0040060642068C1616563A16B16
:10585000206B2A4E19B1112812D0212810D0E16BEB
:10586000F1B3122824D0222822D03EE00321204682
:10587000FFF7E8FE22492820616384F84100E6E74B
:1058800020680168490403D5016821F48041016062
:10589000A06BFCF71BFF012827D0A06B066584F8DE
:1058A0004050A06BFCF7D0FD002823D0A06B16E081
:1058B00020680168090403D5016821F400410160F2
:1058C000E06BFCF703FF01280FD0E06B066584F85E
:1058D0004050E06BFCF7B8FD00280BD0E06B00E017
:1058E00003E0016DBDE8704008472046BDE8704008
:1058F00000F02EBE70BD00000000FFFF3156000812
:105900000964000870B50446164AC84300254107DB
:105910004FF02000E262256384F8410084F8425091
:10592000656311D42068616A406A0870606A401C2F
:105930006062208D40B1618D401E2085491E6185C9
:10594000606C40F00400606448F203012046FFF7F9
:1059500079FE21681020C861204684F84050FDF788
:105960004DFE70BD0000FFFFF8B50446006820261C
:105970000D46C66194F84100212804D094F84100F6
:10598000222806D00BE001212046FFF75BFE112004
:1059900004E002212046FFF755FE12202063206814
:1059A000E9432C4B00255FEAC16C42682A4F02EAAA
:1059B00003024260E762656306D422681020D0616A
:1059C000606C40F00400606494F84100602805D1E8
:1059D000480703D42068406AC0B200902046FFF711
:1059E000A5FE606C94F84110602900D028B1616C6C
:1059F0002046BDE8F840FFF7F5BE94F841002128A5
:105A000012D094F8410022280DD184F8416025631A
:105A100094F8420084F842504028204684F84050D0
:105A200014D0FDF7ECFDF8BD84F84160256394F8CF
:105A3000420084F842504028204684F8405002D06A
:105A4000FDF7DEFDF8BDFDF7E0FEF8BDFDF7DCFE7D
:105A5000F8BD000000E800FE0000FFFF70B504463E
:105A60000025202084F8425094F8411021290ED0BE
:105A7000122184F841002163022120466563FFF76B
:105A8000E1FD204684F84050FDF7B9FD70BD1121BD
:105A900084F841002163012120466563FFF7D2FDB0
:105AA000204684F84050FDF7ABFD70BD2DE9F05F56
:105AB0000D46016820270446D1F80080C66A90F898
:105AC0004100CF61212808D0292806D022280BD0F8
:105AD0002A2809D028280ED014E048F201012046D7
